{
  "_format": "hh-sol-artifact-1",
  "contractName": "SkillVerifier",
  "sourceName": "contracts/SkillVerifier.sol",
  "abi": [
    {
      "inputs": [],
      "stateMutability": "nonpayable",
      "type": "constructor"
    },
    {
      "anonymous": false,
      "inputs": [
        {
          "indexed": false,
          "internalType": "string",
          "name": "skillId",
          "type": "string"
        },
        {
          "indexed": false,
          "internalType": "address",
          "name": "worker",
          "type": "address"
        }
      ],
      "name": "SkillRequested",
      "type": "event"
    },
    {
      "anonymous": false,
      "inputs": [
        {
          "indexed": false,
          "internalType": "string",
          "name": "skillId",
          "type": "string"
        },
        {
          "indexed": false,
          "internalType": "address",
          "name": "worker",
          "type": "address"
        },
        {
          "indexed": false,
          "internalType": "address",
          "name": "interviewer",
          "type": "address"
        }
      ],
      "name": "SkillVerified",
      "type": "event"
    },
    {
      "inputs": [
        {
          "internalType": "uint256",
          "name": "",
          "type": "uint256"
        }
      ],
      "name": "allSkillIds",
      "outputs": [
        {
          "internalType": "string",
          "name": "",
          "type": "string"
        }
      ],
      "stateMutability": "view",
      "type": "function"
    },
    {
      "inputs": [
        {
          "internalType": "address",
          "name": "interviewer",
          "type": "address"
        }
      ],
      "name": "authorizeInterviewer",
      "outputs": [],
      "stateMutability": "nonpayable",
      "type": "function"
    },
    {
      "inputs": [
        {
          "internalType": "address",
          "name": "",
          "type": "address"
        }
      ],
      "name": "authorizedInterviewers",
      "outputs": [
        {
          "internalType": "bool",
          "name": "",
          "type": "bool"
        }
      ],
      "stateMutability": "view",
      "type": "function"
    },
    {
      "inputs": [
        {
          "internalType": "string",
          "name": "_skillId",
          "type": "string"
        }
      ],
      "name": "getSkillVerification",
      "outputs": [
        {
          "internalType": "string",
          "name": "",
          "type": "string"
        },
        {
          "internalType": "address",
          "name": "",
          "type": "address"
        },
        {
          "internalType": "address",
          "name": "",
          "type": "address"
        },
        {
          "internalType": "uint256",
          "name": "",
          "type": "uint256"
        },
        {
          "internalType": "bool",
          "name": "",
          "type": "bool"
        }
      ],
      "stateMutability": "view",
      "type": "function"
    },
    {
      "inputs": [
        {
          "internalType": "string",
          "name": "_skillId",
          "type": "string"
        },
        {
          "internalType": "string",
          "name": "_skillName",
          "type": "string"
        }
      ],
      "name": "requestSkillVerification",
      "outputs": [],
      "stateMutability": "payable",
      "type": "function"
    },
    {
      "inputs": [],
      "name": "skillFee",
      "outputs": [
        {
          "internalType": "uint256",
          "name": "",
          "type": "uint256"
        }
      ],
      "stateMutability": "view",
      "type": "function"
    },
    {
      "inputs": [
        {
          "internalType": "string",
          "name": "",
          "type": "string"
        }
      ],
      "name": "skills",
      "outputs": [
        {
          "internalType": "string",
          "name": "skillId",
          "type": "string"
        },
        {
          "internalType": "string",
          "name": "skillName",
          "type": "string"
        },
        {
          "internalType": "address",
          "name": "worker",
          "type": "address"
        },
        {
          "internalType": "address",
          "name": "interviewer",
          "type": "address"
        },
        {
          "internalType": "uint256",
          "name": "timestamp",
          "type": "uint256"
        },
        {
          "internalType": "bool",
          "name": "verified",
          "type": "bool"
        },
        {
          "internalType": "string",
          "name": "notes",
          "type": "string"
        },
        {
          "internalType": "uint256",
          "name": "feePaid",
          "type": "uint256"
        }
      ],
      "stateMutability": "view",
      "type": "function"
    },
    {
      "inputs": [
        {
          "internalType": "string",
          "name": "_skillId",
          "type": "string"
        },
        {
          "internalType": "bool",
          "name": "_verified",
          "type": "bool"
        },
        {
          "internalType": "string",
          "name": "_notes",
          "type": "string"
        }
      ],
      "name": "verifySkill",
      "outputs": [],
      "stateMutability": "nonpayable",
      "type": "function"
    }
  ],
  "bytecode": "0x6080604052662386f26fc1000060005534801561001b57600080fd5b506001600260003373ffffffffffffffffffffffffffffffffffffffff1673ffffffffffffffffffffffffffffffffffffffff16815260200190815260200160002060006101000a81548160ff021916908315150217905550611932806100836000396000f3fe60806040526004361061007b5760003560e01c80638d26bbe31161004e5780638d26bbe314610164578063be18e57e146101a8578063caa20e9c146101c4578063dfbe8865146101ef5761007b565b806315b093e91461008057806337c9aa50146100bd5780636b9b3c51146100fa5780638a4e697614610123575b600080fd5b34801561008c57600080fd5b506100a760048036038101906100a291906110e5565b610218565b6040516100b49190611491565b60405180910390f35b3480156100c957600080fd5b506100e460048036038101906100df919061123a565b610238565b6040516100f191906114ac565b60405180910390f35b34801561010657600080fd5b50610121600480360381019061011c91906110e5565b6102e4565b005b34801561012f57600080fd5b5061014a6004803603810190610145919061110e565b6103e3565b60405161015b95949392919061153c565b60405180910390f35b34801561017057600080fd5b5061018b6004803603810190610186919061110e565b6106d7565b60405161019f989796959493929190611596565b60405180910390f35b6101c260048036038101906101bd91906111ce565b61091a565b005b3480156101d057600080fd5b506101d9610bfb565b6040516101e691906116e9565b60405180910390f35b3480156101fb57600080fd5b506102166004803603810190610211919061114f565b610c01565b005b60026020528060005260406000206000915054906101000a900460ff1681565b6003818154811061024857600080fd5b90600052602060002001600091509050805461026390611816565b80601f016020809104026020016040519081016040528092919081815260200182805461028f90611816565b80156102dc5780601f106102b1576101008083540402835291602001916102dc565b820191906000526020600020905b8154815290600101906020018083116102bf57829003601f168201915b505050505081565b3073ffffffffffffffffffffffffffffffffffffffff163373ffffffffffffffffffffffffffffffffffffffff16148061034957503273ffffffffffffffffffffffffffffffffffffffff163373ffffffffffffffffffffffffffffffffffffffff16145b610388576040517f08c379a000000000000000000000000000000000000000000000000000000000815260040161037f90611629565b60405180910390fd5b6001600260008373ffffffffffffffffffffffffffffffffffffffff1673ffffffffffffffffffffffffffffffffffffffff16815260200190815260200160002060006101000a81548160ff02191690831515021790555050565b606060008060008060006001876040516103fd919061147a565b90815260200160405180910390206040518061010001604052908160008201805461042790611816565b80601f016020809104026020016040519081016040528092919081815260200182805461045390611816565b80156104a05780601f10610475576101008083540402835291602001916104a0565b820191906000526020600020905b81548152906001019060200180831161048357829003601f168201915b505050505081526020016001820180546104b990611816565b80601f01602080910402602001604051908101604052809291908181526020018280546104e590611816565b80156105325780601f1061050757610100808354040283529160200191610532565b820191906000526020600020905b81548152906001019060200180831161051557829003601f168201915b505050505081526020016002820160009054906101000a900473ffffffffffffffffffffffffffffffffffffffff1673ffffffffffffffffffffffffffffffffffffffff1673ffffffffffffffffffffffffffffffffffffffff1681526020016003820160009054906101000a900473ffffffffffffffffffffffffffffffffffffffff1673ffffffffffffffffffffffffffffffffffffffff1673ffffffffffffffffffffffffffffffffffffffff168152602001600482015481526020016005820160009054906101000a900460ff1615151515815260200160068201805461061c90611816565b80601f016020809104026020016040519081016040528092919081815260200182805461064890611816565b80156106955780601f1061066a57610100808354040283529160200191610695565b820191906000526020600020905b81548152906001019060200180831161067857829003601f168201915b50505050508152602001600782015481525050905080602001518160400151826060015183608001518460a00151955095509550955095505091939590929450565b60018180516020810182018051848252602083016020850120818352809550505050505060009150905080600001805461071090611816565b80601f016020809104026020016040519081016040528092919081815260200182805461073c90611816565b80156107895780601f1061075e57610100808354040283529160200191610789565b820191906000526020600020905b81548152906001019060200180831161076c57829003601f168201915b50505050509080600101805461079e90611816565b80601f01602080910402602001604051908101604052809291908181526020018280546107ca90611816565b80156108175780601f106107ec57610100808354040283529160200191610817565b820191906000526020600020905b8154815290600101906020018083116107fa57829003601f168201915b5050505050908060020160009054906101000a900473ffffffffffffffffffffffffffffffffffffffff16908060030160009054906101000a900473ffffffffffffffffffffffffffffffffffffffff16908060040154908060050160009054906101000a900460ff169080600601805461089190611816565b80601f01602080910402602001604051908101604052809291908181526020018280546108bd90611816565b801561090a5780601f106108df5761010080835404028352916020019161090a565b820191906000526020600020905b8154815290600101906020018083116108ed57829003601f168201915b5050505050908060070154905088565b600060018360405161092c919061147a565b9081526020016040518091039020600001805461094890611816565b90501461098a576040517f08c379a0000000000000000000000000000000000000000000000000000000008152600401610981906116a9565b60405180910390fd5b60005434146109ce576040517f08c379a00000000000000000000000000000000000000000000000000000000081526004016109c590611669565b60405180910390fd5b6040518061010001604052808381526020018281526020013373ffffffffffffffffffffffffffffffffffffffff168152602001600073ffffffffffffffffffffffffffffffffffffffff1681526020016000815260200160001515815260200160405180602001604052806000815250815260200134815250600183604051610a58919061147a565b90815260200160405180910390206000820151816000019080519060200190610a82929190610f9b565b506020820151816001019080519060200190610a9f929190610f9b565b5060408201518160020160006101000a81548173ffffffffffffffffffffffffffffffffffffffff021916908373ffffffffffffffffffffffffffffffffffffffff16021790555060608201518160030160006101000a81548173ffffffffffffffffffffffffffffffffffffffff021916908373ffffffffffffffffffffffffffffffffffffffff1602179055506080820151816004015560a08201518160050160006101000a81548160ff02191690831515021790555060c0820151816006019080519060200190610b74929190610f9b565b5060e08201518160070155905050600382908060018154018082558091505060019003906000526020600020016000909190919091509080519060200190610bbd929190610f9b565b507fe7b7a8e48379aea0d76508fd275f039babb8e0e4ea1cb866f13f5e26ebf5dfc48233604051610bef9291906114ce565b60405180910390a15050565b60005481565b600260003373ffffffffffffffffffffffffffffffffffffffff1673ffffffffffffffffffffffffffffffffffffffff16815260200190815260200160002060009054906101000a900460ff16610c8d576040517f08c379a0000000000000000000000000000000000000000000000000000000008152600401610c84906116c9565b60405180910390fd5b6000600184604051610c9f919061147a565b90815260200160405180910390206000018054610cbb90611816565b905011610cfd576040517f08c379a0000000000000000000000000000000000000000000000000000000008152600401610cf490611649565b60405180910390fd5b600073ffffffffffffffffffffffffffffffffffffffff16600184604051610d25919061147a565b908152602001604051809103902060030160009054906101000a900473ffffffffffffffffffffffffffffffffffffffff1673ffffffffffffffffffffffffffffffffffffffff1614610dad576040517f08c379a0000000000000000000000000000000000000000000000000000000008152600401610da490611689565b60405180910390fd5b33600184604051610dbe919061147a565b908152602001604051809103902060030160006101000a81548173ffffffffffffffffffffffffffffffffffffffff021916908373ffffffffffffffffffffffffffffffffffffffff16021790555081600184604051610e1e919061147a565b908152602001604051809103902060050160006101000a81548160ff02191690831515021790555042600184604051610e57919061147a565b90815260200160405180910390206004018190555080600184604051610e7d919061147a565b90815260200160405180910390206006019080519060200190610ea1929190610f9b565b506000600184604051610eb4919061147a565b90815260200160405180910390206007015490506000811115610f19573373ffffffffffffffffffffffffffffffffffffffff166108fc829081150290604051600060405180830381858888f19350505050158015610f17573d6000803e3d6000fd5b505b7f313facd62d0c02322d1f1f8a741e032e9ffd6823db4dfeb85b7fd52025ec0f8e84600186604051610f4b919061147a565b908152602001604051809103902060020160009054906101000a900473ffffffffffffffffffffffffffffffffffffffff1633604051610f8d939291906114fe565b60405180910390a150505050565b828054610fa790611816565b90600052602060002090601f016020900481019282610fc95760008555611010565b82601f10610fe257805160ff1916838001178555611010565b82800160010185558215611010579182015b8281111561100f578251825591602001919060010190610ff4565b5b50905061101d9190611021565b5090565b5b8082111561103a576000816000905550600101611022565b5090565b600061105161104c84611735565b611704565b90508281526020810184848401111561106957600080fd5b6110748482856117d4565b509392505050565b60008135905061108b816118b7565b92915050565b6000813590506110a0816118ce565b92915050565b600082601f8301126110b757600080fd5b81356110c784826020860161103e565b91505092915050565b6000813590506110df816118e5565b92915050565b6000602082840312156110f757600080fd5b60006111058482850161107c565b91505092915050565b60006020828403121561112057600080fd5b600082013567ffffffffffffffff81111561113a57600080fd5b611146848285016110a6565b91505092915050565b60008060006060848603121561116457600080fd5b600084013567ffffffffffffffff81111561117e57600080fd5b61118a868287016110a6565b935050602061119b86828701611091565b925050604084013567ffffffffffffffff8111156111b857600080fd5b6111c4868287016110a6565b9150509250925092565b600080604083850312156111e157600080fd5b600083013567ffffffffffffffff8111156111fb57600080fd5b611207858286016110a6565b925050602083013567ffffffffffffffff81111561122457600080fd5b611230858286016110a6565b9150509250929050565b60006020828403121561124c57600080fd5b600061125a848285016110d0565b91505092915050565b61126c8161178c565b82525050565b61127b8161179e565b82525050565b600061128c82611765565b6112968185611770565b93506112a68185602086016117e3565b6112af816118a6565b840191505092915050565b60006112c582611765565b6112cf8185611781565b93506112df8185602086016117e3565b80840191505092915050565b60006112f8600c83611770565b91507f556e617574686f72697a656400000000000000000000000000000000000000006000830152602082019050919050565b6000611338600f83611770565b91507f536b696c6c206e6f7420666f756e6400000000000000000000000000000000006000830152602082019050919050565b6000611378601983611770565b91507f496e636f72726563742045544820616d6f756e742073656e74000000000000006000830152602082019050919050565b60006113b8601083611770565b91507f416c7265616479207665726966696564000000000000000000000000000000006000830152602082019050919050565b60006113f8601483611770565b91507f536b696c6c20616c7265616479206578697374730000000000000000000000006000830152602082019050919050565b6000611438600e83611770565b91507f4e6f7420617574686f72697a65640000000000000000000000000000000000006000830152602082019050919050565b611474816117ca565b82525050565b600061148682846112ba565b915081905092915050565b60006020820190506114a66000830184611272565b92915050565b600060208201905081810360008301526114c68184611281565b905092915050565b600060408201905081810360008301526114e88185611281565b90506114f76020830184611263565b9392505050565b600060608201905081810360008301526115188186611281565b90506115276020830185611263565b6115346040830184611263565b949350505050565b600060a08201905081810360008301526115568188611281565b90506115656020830187611263565b6115726040830186611263565b61157f606083018561146b565b61158c6080830184611272565b9695505050505050565b60006101008201905081810360008301526115b1818b611281565b905081810360208301526115c5818a611281565b90506115d46040830189611263565b6115e16060830188611263565b6115ee608083018761146b565b6115fb60a0830186611272565b81810360c083015261160d8185611281565b905061161c60e083018461146b565b9998505050505050505050565b60006020820190508181036000830152611642816112eb565b9050919050565b600060208201905081810360008301526116628161132b565b9050919050565b600060208201905081810360008301526116828161136b565b9050919050565b600060208201905081810360008301526116a2816113ab565b9050919050565b600060208201905081810360008301526116c2816113eb565b9050919050565b600060208201905081810360008301526116e28161142b565b9050919050565b60006020820190506116fe600083018461146b565b92915050565b6000604051905081810181811067ffffffffffffffff8211171561172b5761172a611877565b5b8060405250919050565b600067ffffffffffffffff8211156117505761174f611877565b5b601f19601f8301169050602081019050919050565b600081519050919050565b600082825260208201905092915050565b600081905092915050565b6000611797826117aa565b9050919050565b60008115159050919050565b600073ffffffffffffffffffffffffffffffffffffffff82169050919050565b6000819050919050565b82818337600083830152505050565b60005b838110156118015780820151818401526020810190506117e6565b83811115611810576000848401525b50505050565b6000600282049050600182168061182e57607f821691505b6020821081141561184257611841611848565b5b50919050565b7f4e487b7100000000000000000000000000000000000000000000000000000000600052602260045260246000fd5b7f4e487b7100000000000000000000000000000000000000000000000000000000600052604160045260246000fd5b6000601f19601f8301169050919050565b6118c08161178c565b81146118cb57600080fd5b50565b6118d78161179e565b81146118e257600080fd5b50565b6118ee816117ca565b81146118f957600080fd5b5056fea264697066735822122078d7b41df3b434dd746f85eef9d99276e9c547837a32af7c961152ed876afcac64736f6c63430008000033",
  "linkReferences": {},
  "deployedLinkReferences": {}
}